S10A7F80000000FF000000F7
S1238000B67F8127FB8600B77F81B67F8239B7FE2039BD8000810D2605BD800E860ABD803B
S12380200E39B6FE10B77F828601B77F813B34028622B7FE41B6FE30B77F8035023B8C0094
S1238040112606BD800E7E80778C00172606BD80007E80778C000126037EF8008C0045267B
S1238060037E80778C0012260BBD80861F98BD80867E80777E7FFD3B3402A6802705B7FE91
S12380802020F73502393406C6103DBD80923506840F8B9019894019BD800E39A680BD804E
S12380A086A684BD808639C1612502C4DFC1302536C1392F0AC141252EC146222AC007C472
S12380C00F58585858F77F858161250284DF8130251581392F0A8141250D8146220980077B
S12380E0840F1A04BA7F8539BD8012810A271B1F89BD8012BD80A7B77F83BD80121F89BD70
S12381008012BD80A7B77F848600398605B7FE41C6FFB7FFFFB7FFFFB7FFFFB7FFFFB7FF9C
S1238120FFB7FFFFB7FFFFB7FFFF5A26E586FFB77F808615C606B7FE41F7FE31B67F8081C4
S12381401526F986FFB77F808651B7FE41B67F8081FF27F981142604CC000139CC000039C0
S1238160F6FE3086003986FFB77F80AE668654B7FE41A665B7FE31A664B7FE31A663B7FE5A
S123818031A662B7FE318601B7FE31B67F8081FF27F9811D261D8628B7FE41F6FE30B6FE9D
S12381A030A7805A26F886FFB77F808655B7FE417E818B81142704CC000039CC0001398605
S12381C0FFB77F80AE668656B7FE41A665B7FE31A664B7FE31A663B7FE31A662B7FE3186BC
S12381E001B7FE31B67F8081FF27F9811E261F862BB7FE41C640F7FE31A680B7FE315A26FC
S1238200F886FFB77F808657B7FE417E81E481142704CC000039CC0001398E8254BD80788D
S12382203957617272656E27732053696D706C652036383039204D6F6E69746F722C2024FF
S12382405265766973696F6E3A20312E3420240D0A0D0A004458585858202D2064756D70A5
S12382602031362062797465732061742024585858582E2049662044206279206974736562
S12382806C662C0D0A202020202020202064756D70207374617274696E672070617374208B
S12382A0746865206C6173742064756D7020636F6D6D616E640D0A41585858582058582028
S12382C05858205858205858202E2E2E0D0A2020202020202D20616C746572206D656D6F96
S12382E072792061742024585858582077697468206E65772062797465730D0A4758585803
S123830058202D2072756E20636F64652061742024585858580D0A4C20202020202D206C2F
S12383206F6164207331392066696C6520696E746F206D656D6F72790D0A3F2020202020BF
S12383402D2073686F772074686973207573616765206D6573736167650D0A58582073742B
S1238360616E647320666F7220686578206469676974733A20302D392C20612D662C204126
S12383802D460D0A00556E6B6E6F776E20636F6D6D616E640D0A0D0A003E20003A20000D6D
S12383A00A005479706520696E20616E207331392066696C652077697468206F6E6C79208C
S12383C0533120616E64205339206C696E65732E0D0A456E7375726520746865206C617363
S12383E074206C696E6520697320746865205339206C696E652E0D0A00556E7265636F6754
S11284006E697365642053206C696E650D0A0004
S123F80010CE7F701CAF8600B77F818600B7FE708601B7FE718602B7FE728603B7FE7386D1
S123F82004B7FE748605B7FE758606B7FE768607B7FE77867EB77FFD8E8221BD8078BD8216
S123F8401A8E8399BD8078BD80128164273481442730816C10270085814C1027007F81676C
S123F86027608147275C8161102700D58141102700CFBD8012810A26F98E8385BD80787E3A
S123F880F83EBD80E8810A2707BD8012810A26F98E7F83BD809C8E839CBD8078BE7F83C606
S123F8A000A680BD80868620BD800E5CC11026F1FC7F83C30010FD7F838E839FBD80787E73
S123F8C0F841BD80E8810A2707BD8012810A26F9AD9F7F838E839FBD80787EF841BD80125B
S123F8E0810A26F98E83A2BD8078BD80128153260BBD8012813127148139273BBD80128176
S123F9000A26F98E83F9BD80787EF841BD80121F89BD8012BD80A7B77F86BD80E8BD8012EA
S123F920810A27C61F89BD8012BD80A7BE7F83A780BF7F837EF91DBD8012810A26F97EF8C5
S123F94041BD80E8810A1027FF2FBD8012810A1027FF26BD8012810A1027FF1D1F89BD8005
S121F96012810A1027FF12BD80A7BE7F83A780BF7F83BD8012810A1027FEC67EF95375
S109FF80B7FE517EF800FB
S109FFF6802E8022803EF3
S105FFFEFF807E
S9030000FC
