S10A7780000000FF000000FF
S10480001269
S123E000B6778127FB8600B77781B6778239B7FE2039BDE000810D2605BDE00E860ABDE0D3
S123E0200E39B6FE10B777828601B77781B7FE803B34028622B7FE41B6FE30B777803502DE
S123E040B7FE803B8C00112606BDE00E7EE0748C00172608BDE000A7617EE0748C0001260B
S123E060037EF8008C0012260BBDE0851F98BDE0857EE0747EFF193402A6802705B7FE2094
S123E08020F73502393406C6103DBDE0913506840F8B9019894019BDE00E39A680BDE0856A
S123E0A0A684BDE08539C1612502C4DFC1302536C1392F0AC141252EC146222AC007C40F2A
S123E0C058585858F777858161250284DF8130251581392F0A8141250D81462209800784AE
S123E0E00F1A04BA778539BDE012810A271B1F89BDE012BDE0A6B77783BDE0121F89BDE045
S123E10012BDE0A6B777848600398605B7FE41C6FFB7FFFFB7FFFFB7FFFFB7FFFFB7FFFF66
S123E120B7FFFFB7FFFFB7FFFF5A26E586FFB777808615C606B7FE41F7FE40B6778081154F
S123E14026F986FFB777808651B7FE41B6778081FF27F981142604CC000139CC000039F68F
S123E160FE3086003986FFB77780AE668654B7FE41A665B7FE40A664B7FE40A663B7FE409A
S123E180A662B7FE408601B7FE40B6778081FF27F9811D261D8628B7FE41F6FE30B6FE3028
S123E1A0A7805A26F886FFB777808655B7FE417EE18A81142704CC000039CC00013986FF7F
S123E1C0B77780AE668656B7FE41A665B7FE40A664B7FE40A663B7FE40A662B7FE40860126
S123E1E0B7FE40B6778081FF27F9811E261F862BB7FE41C640F7FE40A680B7FE405A26F880
S123E20086FFB777808657B7FE417EE1E381142704CC000039CC0001398EE254BDE07739D6
S123E22057617272656E27732053696D706C652036383039204D6F6E69746F722C20245286
S123E24065766973696F6E3A20312E323620240D0A0D0A004458585858202D2064756D7063
S123E2602031362062797465732061742024585858582E2049662044206279206974736502
S123E2806C662C0D0A202020202020202064756D70207374617274696E672070617374202B
S123E2A0746865206C6173742064756D7020636F6D6D616E640D0A415858585820585820C8
S123E2C05858205858205858202E2E2E0D0A2020202020202D20616C746572206D656D6F36
S123E2E072792061742024585858582077697468206E65772062797465730D0A47585858A3
S123E30058202D2072756E20636F64652061742024585858580D0A4C20202020202D206CCF
S123E3206F6164207331392066696C6520696E746F206D656D6F72790D0A3F20202020205F
S123E3402D2073686F772074686973207573616765206D6573736167650D0A5858207374CB
S123E360616E647320666F7220686578206469676974733A20302D392C20612D662C2041C6
S123E3802D460D0A00556E6B6E6F776E20636F6D6D616E640D0A0D0A003E20003A20000D0D
S123E3A00A005479706520696E20616E207331392066696C652077697468206F6E6C79202C
S123E3C0533120616E64205339206C696E65732E0D0A456E7375726520746865206C617303
S123E3E074206C696E6520697320746865205339206C696E652E0D0A00556E7265636F67F4
S112E4006E697365642053206C696E650D0A00A4
S123F80010CE77701CAF8600B777818600B7FE708601B7FE718602B7FE728603B7FE7386E1
S123F82004B7FE748605B7FE758606B7FE768607B7FE778EE220BDE077BDE2198EE399BD4F
S123F840E077BDE0128164273481442730816C10270085814C1027007F81672761814727B7
S123F8605D8161102700D58141102700CFBDE012810A26F98EE385BDE0777EF839BDE0E7DB
S123F880810A2707BDE012810A26F98E7783BDE09B8EE39CBDE077BE7783C600BDFF00BD7A
S123F8A0E0858620BDE00E5CC11026F0FC7783C30010FD77838EE39FBDE0777EF83CBDE018
S123F8C0E7810A2707BDE012810A26F97EFF128EE39FBDE0777EF83CBDE012810A26F98EDF
S123F8E0E3A2BDE077BDE0128153260BBDE012813127148139273BBDE012810A26F98EE335
S123F900F9BDE0777EF83CBDE0121F89BDE012BDE0A6B77786BDE0E7BDE012810A27C61F5D
S123F92089BDE012BDE0A6BE7783A780BF77837EF918BDE012810A26F97EF83CBDE0E78111
S123F9400A1027FF2FBDE012810A1027FF26BDE012810A1027FF1D1F89BDE012810A1027F8
S11DF960FF12BDE0A6BE7783BDFF09BF7783BDE012810A1027FEC57EF94E06
S120FF00B7FE50A680B7FE5139B7FE50A780B7FE5139B7FE606E9F7783B7FE803B7F
S105FFF4E044E3
S105FFF8E02201
S105FFFEF80005
S9030000FC
